S00B00004144432E7372656351
S11300000C942A000C9447000C9447000C9447006D
S11300100C9447000C9447000C9447000C94470040
S11300200C9447000C9447000C9447000C94470030
S11300300C9447000C9447000C9447000C94470020
S11300400C9447000C9447000C9447000C94470010
S11300500C94470011241FBECFE5D4E0DEBFCDBF12
S113006010E0A0E6B0E0E0EAF2E002C005900D92F4
S1130070A636B107D9F720E0A6E6B0E001C01D928C
S1130080AD36B207E1F70E940E010C944E010C94B8
S11300900000AE98AF9A9BB3282F207F9F70922BBD
S11300A09BBBE9EFF0E03197F1F700C00000AF9897
S11300B0E9EFF0E03197F1F700C00000AF9A2BB3FD
S11300C0F0E18F9FC0011124922F9F70892B8BBB6D
S11300D089EF90E00197F1F700C00000AF98E9EFD5
S11300E0F0E03197F1F700C000000895AE9AAF9A9E
S11300F09BB3282F207F9F70922B9BBBE9EFF0E0EE
S11301003197F1F700C00000AF98E9EFF0E03197C4
S1130110F1F700C00000AF9A2BB3F0E18F9FC0014C
S11301201124922F9F70892B8BBB89EF90E001974C
S1130130F1F700C00000AF98E9EFF0E03197F1F774
S113014000C0000008951F93CF93DF932AE030E0AE
S1130150B9010E942601C82FCB01B9010E942601D2
S1130160D82FCB01B9010E942601182F80E3860FF6
S11301700E94760080E3810F0E94760080E38D0F59
S11301800E94760080E38C0F0E947600DF91CF916D
S11301901F910895CF93DF93EC018881882331F078
S11301A021960E94760089918111FBCFDF91CF9136
S11301B00895A69AA79AD49AD59AD69AD79A87E8F0
S11301C093E10197F1F700C0000082E00E9449002A
S11301D088E20E9449008CE00E94490086E00E9467
S11301E0490081E00E94490080E80E944900089586
S11301F080EF8ABB83E886B980E487B9089597B114
S11302008F70982B97B9369A349BFECF24B185B161
S113021090E0982F8827820F911D08950E94D9009D
S11302200E94F80080E80E94490080E690E00E9465
S1130230CA0084E80E94490080E00E94FF00909375
S11302406C0080936B000E94A300ECCF97FB072EF9
S113025016F4009407D077FD09D00E943A0107FCF8
S113026005D03EF4909581959F4F089570956195C2
S11302707F4F0895AA1BBB1B51E107C0AA1FBB1FD8
S1130280A617B70710F0A61BB70B881F991F5A951E
S1130290A9F780959095BC01CD010895F894FFCFFE
S10902A04144433A000052
S9030000FC
